:100000001CC040C03FC03EC03DC03CC03BC03AC029
:1000100039C038C037C036C035C034C033C032C034
:100020007DC230C0AAC4DBC42DC02CC02BC02AC0E6
:1000300029C028C02C021D05310211241FBECFEF9C
:10004000D4E0DEBFCDBF11E0A0E0B1E0E4EBF6E12B
:1000500002C005900D92AC31B107D9F721E0ACE1B7
:10006000B1E001C01D92AE3CB207E1F710E0C8E379
:10007000D0E003C02297FE01D3D8C433D107D1F713
:1000800020D50CCBBDCF862728E030E0AC015695BB
:10009000479580FF06C0CA0161E0862760EA96277F
:1000A00001C0CA012150310989F70895CF93DF9328
:1000B00026E040E05BE460E070E08DE291E003D494
:1000C000259A2D98CAE0D0E06EE170E080E090E0E3
:1000D0009ED22D9A6EE170E080E090E098D22D984B
:1000E000219791F7DF91CF910895CF92DF92EF9210
:1000F000FF921F93CF93DF93182FCAE0D0E0C12C5B
:10010000D12C7601812FE3D2BC01882777FD809521
:10011000982F73D729E632EA49E85EE3FAD79B01C4
:10012000AC01C701B6016FD66B017C01219751F775
:1001300020E030E040E251E4CAD631D7CB016F3F36
:10014000710519F010F08FEF90E0DF91CF911F91C2
:10015000FF90EF90DF90CF9008954F925F926F9253
:100160007F928F929F92AF92BF92CF92DF92EF9247
:10017000FF920F931F93CF93DF93CDB7DEB76F97A7
:100180000FB6F894DEBF0FBECDBF2D9A83E190E08D
:10019000ACDF2C0182E190E0A8DF3C0181E190E03E
:1001A000A4DF4C0180E190E0A0DF5C0184E190E0FD
:1001B0009CDF6C0185E190E098DF7C018EE090E0AF
:1001C00094DF8C018FE090E090DF2BE32983920194
:1001D000207F332764E0369527956A95E1F72A302A
:1001E000310510F4205D01C0295C2A8392012F7033
:1001F0003327442D4F702A30310510F420E301C01D
:1002000027E3240F2B839301207F332754E0369577
:1002100027955A95E1F72A30310510F4205D01C089
:10022000295C2C8393012F703327462D4F702A3081
:10023000310510F420E301C027E3240F2D8394013E
:10024000207F332744E0369527954A95E1F72A30F9
:10025000310510F4205D01C0295C2E8394012F70BC
:100260003327482D4F702A30310510F420E301C0A8
:1002700027E3240F2F839501207F3327B4E03695A1
:100280002795BA95E1F72A30310510F4205D01C0B9
:10029000295C288795012F7033274A2D4F702A300B
:1002A000310510F420E301C027E3240F29879601CC
:1002B000207F3327A4E036952795AA95E1F72A30C9
:1002C000310510F4205D01C0295C2A8796012F704A
:1002D00033274C2D4F702A30310510F420E301C034
:1002E00027E3240F2B879701207F3327F4E03695EF
:1002F0002795FA95E1F72A30310510F4205D01C009
:10030000295C2C8797012F7033274E2D4F702A3090
:10031000310510F420E301C027E3240F2D87980155
:10032000207F3327E4E036952795EA95E1F72A30D8
:10033000310510F4205D01C0295C2E8798012F70D3
:1003400033270F702A30310510F4005D01C0095CBD
:100350000F879C01207F332774E0369527957A9587
:10036000E1F72A30310510F4205D01C0295C288BAB
:100370009C012F7033278F702A30310510F4805D77
:1003800001C0895C898B8E010F5F1F4F7E0182E166
:10039000E80EF11C8FEF9FEFD02E712FF8016191C5
:1003A0008F017F8F70DE7F8D0E151F05B9F790933B
:1003B0002301809322019C01232F332722952F7044
:1003C0002A30310510F4205D01C0295C2A8B9C0184
:1003D00022273F70232F33272A30310510F4205D68
:1003E00001C0295C2B8B9C01207F332744E036958C
:1003F00027954A95E1F72A30310510F4205D01C0B8
:10040000295C2C8B9C012F7033278F702A3031058B
:1004100010F4805D01C0895C8D8B8FE38E8B1F8A09
:100420006D2D8DE291E095D32D986F960FB6F894CF
:10043000DEBF0FBECDBFDF91CF911F910F91FF9017
:10044000EF90DF90CF90BF90AF909F908F907F9074
:100450006F905F904F9008956AE071E08CE191E0B9
:1004600036C48CE191E0CCC3CF92DF92EF92FF9241
:10047000CF93DF9300D000D000D0CDB7DEB78DE2B0
:1004800091E042D1892BE9F18DE291E056D18F972D
:10049000C1F56AE071E08CE191E043D444E650E0BC
:1004A00060E070E08DE291E081D34CE56DE271E0B7
:1004B000CE01019681D3BE016F5F7F4F8CE191E049
:1004C0001BD4CE0101969CD373D06B017C0170D0FC
:1004D0006C197D098E099F096233710581059105AB
:1004E00048F48DE291E010D1892B89F38DE291E0FF
:1004F00024D1EDCF67E071E08CE191E064D481110B
:100500002CDE26960FB6F894DEBF0FBECDBFDF916E
:10051000CF91FF90EF90DF90CF9008951F920F92B0
:100520000FB60F9211242F933F938F939F93AF9306
:10053000BF938091250190912601A0912701B09150
:1005400028013091240126E0230F2D3720F4029654
:10055000A11DB11D05C029E8230F0396A11DB11DE2
:10056000209324018093250190932601A0932701D5
:10057000B09328018091290190912A01A0912B012B
:10058000B0912C010196A11DB11D8093290190937A
:100590002A01A0932B01B0932C01BF91AF919F91A1
:1005A0008F913F912F910F900FBE0F901F90189534
:1005B0002FB7F89460912501709126018091270151
:1005C000909128012FBF08953FB7F8948091290199
:1005D00090912A01A0912B01B0912C0126B5A89BE6
:1005E00005C02F3F19F00196A11DB11D3FBF662721
:1005F000782F892F9A2F620F711D811D911D43E065
:10060000660F771F881F991F4A95D1F70895CF92DB
:10061000DF92EF92FF92CF93DF936B017C01D4DFE7
:10062000EB01C114D104E104F10479F0EAD3CCDF89
:100630006C1B7D0B683E7340A0F381E0C81AD108A3
:10064000E108F108C851DC4FECCFDF91CF91FF906A
:10065000EF90DF90CF900895789484B5826084BD48
:1006600084B5816084BD85B5826085BD85B58160B6
:1006700085BDEEE6F0E0808181608083E1E8F0E016
:100680001082808182608083808181608083E0E845
:10069000F0E0808181608083E1EBF0E08081846024
:1006A0008083E0EBF0E0808181608083EAE7F0E026
:1006B000808184608083808182608083808181608A
:1006C00080838081806880831092C10008958E307D
:1006D00008F08E5087702091060190E4299F9001C8
:1006E0001124822B80937C0080917A008064809317
:1006F0007A0080917A0086FDFCCF8091780020916D
:10070000790090E0922B0895FC01818D228D90E07C
:10071000805C9F4F821B91098F7399270895FC017C
:10072000918D828D981731F0828DE80FF11D858DA6
:1007300090E008958FEF9FEF0895FC01918D828DD9
:10074000981761F0828DDF01A80FB11D5D968C9125
:10075000928D9F5F9F73928F90E008958FEF9FEF30
:10076000089584E195E0892B39F080E090E0892BB1
:1007700019F05AD1811144CC0895FC01848DDF0118
:10078000A80FB11DA35ABF4F2C91848D90E0019604
:100790008F739927848FA689B7892C93A089B189F3
:1007A0008C9180648C93938D848D981306C00288FD
:1007B000F389E02D80818F7D80830895CF93DF932F
:1007C000EC01888D8823C1F0EA89FB89808185FD51
:1007D00005C0A889B9898C9186FD0EC00FB607FCAB
:1007E000F5CF808185FFF2CFA889B9898C9185FFEB
:1007F000EDCFCE01C2DFE8CFDF91CF910895CF9248
:10080000DF92FF920F931F93CF93DF931F92CDB789
:10081000DEB76C01DC015B969C915B975C968C91DA
:100820005C97981307C05096ED91FC915197808189
:1008300085FD31C0F601038D10E00F5F1F4F0F7370
:100840001127F02EF601848DF81210C00FB607FCA8
:10085000F9CFD6015096ED91FC915197808185FF9B
:10086000F1CFC601698389DF6981ECCF838DE80F01
:10087000F11DE35AFF4F6083D6015B960C935B97A3
:100880005296ED91FC91539780818062808381E044
:1008900058968C930DC0D6015696ED91FC915797C2
:1008A00060835096ED91FC915197808180648083A4
:1008B00081E090E00F90DF91CF911F910F91FF9019
:1008C000DF90CF900895BF92CF92DF92EF92FF9288
:1008D000CF93DF93EC016A017B01B22E60E874E8EC
:1008E0008EE190E0A701960177D4215031094109AA
:1008F00051095695479537952795E889F98982E0FA
:100900008083211580E1380790F0E889F989108209
:1009100060E472E48FE090E0A70196015DD421507D
:100920003109410951095695479537952795EC8529
:10093000FD853083EE85FF852083188EEC89FD8947
:10094000B082EA89FB89808180618083EA89FB89A2
:10095000808188608083EA89FB89808180688083C8
:10096000EA89FB8980818F7D8083DF91CF91FF9021
:10097000EF90DF90CF90BF9008951F920F920FB627
:100980000F9211242F938F939F93EF93FF93E091F6
:100990003D01F0913E018081E0914301F0914401DD
:1009A00082FD12C09081809146018F5F8F732091EC
:1009B0004701821751F0E0914601F0E0E35DFE4F00
:1009C000958F8093460101C08081FF91EF919F91A7
:1009D0008F912F910F900FBE0F901F9018951F921F
:1009E0000F920FB60F9211242F933F934F935F9363
:1009F0006F937F938F939F93AF93BF93EF93FF93E7
:100A00008DE291E0BADEFF91EF91BF91AF919F919E
:100A10008F917F916F915F914F913F912F910F90A7
:100A20000FBE0F901F9018958DE291E06DDE21E0D2
:100A3000892B09F420E0822F089510923001109242
:100A40002F0188EE93E0A0E0B0E080933101909315
:100A50003201A0933301B09334018FE091E0909381
:100A60002E0180932D0185EC90E090933A018093C4
:100A7000390184EC90E090933C0180933B0180EC41
:100A800090E090933E0180933D0181EC90E0909343
:100A9000400180933F0182EC90E09093420180936B
:100AA000410186EC90E090934401809343011092C1
:100AB0004601109247011092480110924901089591
:100AC0000895CADDFDDFF2DAC1EBD3E0CDDC20977B
:100AD000E9F347DEFBCFCF92DF92EF92FF920F93C5
:100AE0001F93CF93DF936C017A01EB01E60EF71EA3
:100AF00000E010E0CE15DF0561F06991D601ED91BF
:100B0000FC910190F081E02DC6010995080F191F95
:100B1000F1CFC801DF91CF911F910F91FF90EF901E
:100B2000DF90CF9008956115710581F0DB010D9084
:100B30000020E9F7AD0141505109461B570BDC017C
:100B4000ED91FC910280F381E02D099480E090E02A
:100B50000895E9CF0F931F93CF93DF93EC0128DD26
:100B6000688779878A879B87E881F9810680F78182
:100B7000E02DCE01099597FF14C01ADD088519856F
:100B80002A853B85601B710B820B930B0C811D81A9
:100B90002E813F81601771078207930728F38FEF3B
:100BA0009FEFDF91CF911F910F910895FC01448336
:100BB0005583668377830895EF92FF920F931F9377
:100BC000CF93DF93EC018B01E42E6AE071E07FD0DC
:100BD000C801C0DFFF24E7FCF09497FD09C08E1523
:100BE0009F0531F0682FCE01DCD0C801B3DFF5CF0F
:100BF000CE01DF91CF911F910F91FF90EF9008955B
:100C0000FC0180819181A8C3CF93DF93EC0188819F
:100C10009981009709F0A0D3198218821D821C8245
:100C20001B821A82DF91CF9108950F931F93CF9368
:100C3000DF93EC018B016F5F7F4F888199811BD41B
:100C4000009731F0998388831B830A8381E001C078
:100C500080E0DF91CF911F910F910895CF93DF93A3
:100C6000EC0188819981892B29F08A819B818617E3
:100C7000970758F4CE01D9DF882341F08C819D81FC
:100C8000892B19F4E881F981108281E0DF91CF91FD
:100C90000895EF92FF920F931F93CF93DF93EC0190
:100CA0007B018A01BA01DADF811103C0CE01ACDF1A
:100CB00006C01D830C83B70188819981B1D4CE0110
:100CC000DF91CF911F910F91FF90EF900895FC015C
:100CD00011821082138212821582148261157105AD
:100CE00051F0FB0101900020E9F7AF01415051099B
:100CF000461B570BCECF0895CF93DF93EC01FB013A
:100D00008617970751F0608171816115710521F097
:100D100044815581BEDF01C077DFCE01DF91CF91E5
:100D20000895CF93DF93EC016115710559F0FB0134
:100D300001900020E9F7AF0141505109461B570BC4
:100D4000A8DF01C061DFCE01DF91CF910895EF925E
:100D5000FF920F931F93CF93DF93EC017B010C81E4
:100D60001D816115710511F480E014C04115510514
:100D700081F0040F151FB80171DF8823A9F32881C2
:100D800039818C819D81B701820F931F49D41D83C6
:100D90000C8381E0DF91CF911F910F91FF90EF9035
:100DA0000895CF93DF9300D0CDB7DEB769831A8261
:100DB00041E050E0BE016F5F7F4FC9DF0F900F90A1
:100DC000DF91CF910895FC0124813581232B31F4EB
:100DD00021E06115710599F0FB0108C0FC018081DB
:100DE00091816115710531F421E0FC018081882336
:100DF00031F004C00CD421E0892B09F020E0822FCF
:100E0000089508955058BB27AA270ED048C139D15C
:100E100030F03ED120F031F49F3F11F41EF42EC18A
:100E20000EF4E095E7FB24C1E92F4AD180F3BA170D
:100E3000620773078407950718F071F49EF562C185
:100E40000EF4E0950B2EBA2FA02D0B01B9019001E5
:100E50000C01CA01A0011124FF27591B99F0593F29
:100E600050F4503E68F11A16F040A22F232F342F71
:100E70004427585FF3CF469537952795A795F040BF
:100E80005395C9F77EF41F16BA0B620B730B840BD4
:100E9000BAF09150A1F0FF0FBB1F661F771F881F8C
:100EA000C2F70EC0BA0F621F731F841F48F48795E4
:100EB00077956795B795F7959E3F08F0B3CF9395D3
:100EC000880F08F09927EE0F9795879508950CD015
:100ED000E6C0DED040F0D5D030F021F45F3F19F00D
:100EE000C7C0511110C1CAC0EBD098F39923C9F300
:100EF0005523B1F3951B550BBB27AA276217730720
:100F0000840738F09F5F5F4F220F331F441FAA1FD3
:100F1000A9F333D00E2E3AF0E0E830D09150504093
:100F2000E695001CCAF729D0FE2F27D0660F771F41
:100F3000881FBB1F261737074807AB07B0E809F023
:100F4000BB0B802DBF01FF2793585F4F2AF09E3FB8
:100F5000510568F08DC0D7C05F3FECF3983EDCF3DD
:100F6000869577956795B795F7959F5FC9F7880F31
:100F7000911D9695879597F90895E1E0660F771F83
:100F8000881FBB1F621773078407BA0720F0621B14
:100F9000730B840BBA0BEE1F88F7E095089598D079
:100FA00088F09F5790F0B92F9927B751A0F0D1F052
:100FB000660F771F881F991F1AF0BA95C9F712C0DC
:100FC000B13081F09FD0B1E008959CC0672F782F99
:100FD0008827B85F39F0B93FCCF386957795679548
:100FE000B395D9F73EF490958095709561957F4FB4
:100FF0008F4F9F4F0895E89409C097FB3EF490955A
:101000008095709561957F4F8F4F9F4F9923A9F0E1
:10101000F92F96E9BB279395F69587957795679570
:10102000B795F111F8CFFAF4BB0F11F460FF1BC0B4
:101030006F5F7F4F8F4F9F4F16C0882311F096E947
:1010400011C0772321F09EE8872F762F05C06623F5
:1010500071F096E8862F70E060E02AF09A95660FAE
:10106000771F881FDAF7880F9695879597F9089567
:1010700097F99F6780E870E060E008959FEF80EC4B
:10108000089500240A9416161706180609060895EE
:1010900000240A9412161306140605060895092E54
:1010A0000394000C11F4882352F0BB0F40F4BF2BC3
:1010B00011F460FF04C06F5F7F4F8F4F9F4F089503
:1010C00057FD9058440F551F59F05F3F71F04795F9
:1010D000880F97FB991F61F09F3F79F087950895DE
:1010E000121613061406551FF2CF4695F1DF08C0FD
:1010F000161617061806991FF1CF8695710561051A
:1011000008940895E894BB2766277727CB0197F9C1
:1011100008950BD0C4CFB5DF28F0BADF18F09523BF
:1011200009F0A6CFABCF1124EECFCADFA0F3959F75
:10113000D1F3950F50E0551F629FF001729FBB27BE
:10114000F00DB11D639FAA27F00DB11DAA1F649F6A
:101150006627B00DA11D661F829F2227B00DA11D1D
:10116000621F739FB00DA11D621F839FA00D611DA3
:10117000221F749F3327A00D611D231F849F600DC4
:10118000211D822F762F6A2F11249F5750408AF0FD
:10119000E1F088234AF0EE0FFF1FBB1F661F771F89
:1011A000881F91505040A9F79E3F510570F060CFC5
:1011B000AACF5F3FECF3983EDCF386957795679571
:1011C000B795F795E7959F5FC1F7FE2B880F911DA7
:1011D0009695879597F90895A1E21A2EAA1BBB1B35
:1011E000FD010DC0AA1FBB1FEE1FFF1FA217B307F3
:1011F000E407F50720F0A21BB30BE40BF50B661F09
:10120000771F881F991F1A9469F7609570958095CC
:1012100090959B01AC01BD01CF010895EE0FFF1F1A
:101220000590F491E02D0994CF93DF9382309105DE
:1012300010F482E090E0E091CC01F091CD0120E04B
:1012400030E0A0E0B0E0309739F14081518148179B
:101250005907B8F04817590771F4828193811097A4
:1012600029F013969C938E9312972CC09093CD01E6
:101270008093CC0127C02115310531F04217530767
:1012800018F0A901DB0101C0EF019A01BD01DF01E6
:101290000280F381E02DD7CF21153105F9F0281B0D
:1012A000390B2430310580F48A819B8161157105E9
:1012B00021F0FB019383828304C09093CD0180933E
:1012C000CC01FE01329644C0FE01E20FF31F819370
:1012D000919322503109398328833AC02091CA0161
:1012E0003091CB01232B41F4209102013091030175
:1012F0003093CB012093CA0120910001309101016C
:101300002115310541F42DB73EB7409104015091AC
:101310000501241B350BE091CA01F091CB01E217C6
:10132000F307A0F42E1B3F0B2817390778F0AC0108
:101330004E5F5F4F2417350748F04E0F5F1F5093E5
:10134000CB014093CA018193919302C0E0E0F0E0A9
:10135000CF01DF91CF910895CF93DF93009709F4E8
:1013600087C0FC01329713821282C091CC01D091C8
:10137000CD01209781F420813181280F391F809180
:10138000CA019091CB018217930779F5F093CB01B5
:10139000E093CA016DC0DE0120E030E0AE17BF0768
:1013A00050F412964D915C9113979D014115510592
:1013B00009F1DA01F3CFB383A28340815181840F15
:1013C000951F8A179B0771F48D919C911197840F3B
:1013D000951F02969183808312968D919C9113970D
:1013E000938382832115310529F4F093CD01E09395
:1013F000CC013EC0D9011396FC93EE9312974D9108
:101400005D91A40FB51FEA17FB0779F480819181E4
:10141000840F951F0296D90111969C938E93828119
:10142000938113969C938E931297E0E0F0E08A816B
:101430009B81009719F0FE01EC01F9CFCE010296D5
:1014400028813981820F931F2091CA013091CB01ED
:101450002817390769F4309729F41092CD011092BA
:10146000CC0102C013821282D093CB01C093CA0177
:10147000DF91CF910895A0E0B0E0E0E4FAE0DBC0B6
:10148000EC01CB01209711F4CFDEB4C0FE01E60FD2
:10149000F71F9E0122503109E217F30708F4A8C094
:1014A000D9010D911C91119706171707B0F005305F
:1014B000110508F49BC0A80144505109461757076D
:1014C00008F494C002501109061B170B01931193E5
:1014D0006D937C93CF0140DF89C05B01A01AB10AF4
:1014E0004E01800E911EA091CC01B091CD01612CD6
:1014F000712C60E070E0109709F449C0A815B90597
:10150000C9F5ED90FC901197670142E0C40ED11C23
:10151000CA14DB0478F147018A189B08640142E091
:10152000C40ED11C1296BC9012971396AC91B5E0E4
:10153000CB16D10440F0B282A38391828082D9017C
:101540008D939C9309C00E5F1F4F0E0D1F1DF90157
:1015500011830083EB2DFA2F6115710531F0DB014A
:101560001396FC93EE93129741C0F093CD01E09354
:10157000CC013CC06D917C9111976616770608F4FA
:101580003B01BD0112960D90BC91A02DB4CF60918E
:10159000CA017091CB0168157905E9F468167906DE
:1015A000D0F440910001509101014115510541F4E1
:1015B0004DB75EB76091040170910501461B570B52
:1015C000E417F507A8F4F093CB01E093CA01F90101
:1015D000918380830BC028DE7C01009749F0A8012D
:1015E000BE010CD0CE01B8DEC70104C0CE0102C0DE
:1015F00080E090E0CDB7DEB7EEE039C0FB01DC0162
:1016000002C001900D9241505040D8F70895FB015F
:10161000DC018D91019080190110D9F3990B089587
:10162000FB01DC0101900D920020E1F708952F925B
:101630003F924F925F926F927F928F929F92AF9262
:10164000BF92CF92DF92EF92FF920F931F93CF93AF
:10165000DF93CDB7DEB7CA1BDB0B0FB6F894DEBF46
:101660000FBECDBF09942A88398848885F846E846C
:101670007D848C849B84AA84B984C884DF80EE80B6
:10168000FD800C811B81AA81B981CE0FD11D0FB6BF
:10169000F894DEBF0FBECDBFED01089510E0C8E3A2
:1016A000D0E003C0FE01BCDD2296CA33D107D1F7DA
:0416B000F894FFCFDC
:1016B4000000CE018000014941380000000000FF15
:0C16C400036B0584039D038F03DE03000D
:00000001FF
