:100000001CC040C03FC03EC03DC03CC03BC03AC029
:1000100039C038C037C036C035C034C033C032C034
:1000200039C230C04EC47EC42DC02CC02BC02AC0E3
:1000300029C028C0E801C004ED0111241FBECFEF84
:10004000D4E0DEBFCDBF11E0A0E0B1E0EAE7F2E12D
:1000500002C005900D92AA31B107D9F723E0AAE1B9
:10006000B1E001C01D92AC34B207E1F710E0C8E383
:10007000D0E003C02297FE01B6D6C433D107D1F732
:1000800083D6EFC8BDCF862728E030E0AC01569577
:10009000479580FF06C0CA0161E0862760EA96277F
:1000A00001C0CA012150310989F70895CF93DF9328
:1000B00026E040E05BE460E070E08BE291E0A7D3F3
:1000C000259A2D9885B18F6D85B988B18F6388B9D0
:1000D0008BB1806E8BB984B184B987B187B98AB18D
:1000E0008AB9CAE0D0E06EE170E080E090E04BD2E7
:1000F0002D9A6EE170E080E090E045D22D98219736
:1001000091F7DF91CF9108952F923F924F925F9296
:100110006F927F928F929F92AF92BF92CF92DF9217
:10012000EF92FF920F931F93CF93DF93CDB7DEB77C
:10013000A6970FB6F894DEBF0FBECDBF2D9A2BA3A6
:100140003CA34DA35EA3F0D11B012C018BE389835B
:1001500066B186B196B1E6B162956695677071E059
:10016000672760FB662460F8712CF3E0660C771C4F
:10017000FA95E1F782958F70872780FB882480F8B5
:10018000912C880C991C880C991C862D8829E2FBDF
:10019000662760F96727862B9695969596959727FB
:1001A00090FBAA24A0F8B12CAA0CBB1C8A298A3087
:1001B00010F4805D01C0895C8A8376B186B193B109
:1001C00063B17695E1E07E2770FBCC24C0F8D12C9A
:1001D00073E0CC0CDD1C7A95E1F781708E27880FD7
:1001E000880F8C296095661F6627661F862B92955F
:1001F0009695969593709E2790FBEE24E0F8F12C4F
:10020000EE0CFF1C8E298A3010F4805D01C0895CE1
:100210008B8379B169B189B193B19170E1E0729545
:10022000769577707E27072F017010E023E0000F8E
:10023000111F2A95E1F762956695669563706E27A2
:10024000262F217030E0220F331F220F331F022B85
:100250009E27092B992787FD909580959095882753
:10026000990F881F9927880F991F082B0A3010F4BF
:10027000005D01C0095C0C8323B193B183B163B10C
:10028000269531E02327422F417050E073E0440F60
:10029000551F7A95E1F796959695932791709F8FC4
:1002A00018A2EF8DF8A1EE0FFF1FEE0FFF1FF8A3AE
:1002B000EF8F4E2B64FB992790F99327492B869556
:1002C000869586958327817089A31AA289A19AA110
:1002D000880F991F9AA389A3482B4A3010F4405DD8
:1002E00001C0495C4D838E010F5F1F4F7E0196E078
:1002F000E90EF11C8FEF9FEFD02E712FF801619165
:100300008F017BA3C0DE7BA10E151F05B9F790936B
:100310002101809320019C01232F332722952F70E8
:100320002A30310510F4205D01C0295C2E839C0128
:1003300022273F70232F33272A30310510F4205D08
:1003400001C0295C2F839C01207F332744E0369530
:1003500027954A95E1F72A30310510F4205D01C058
:10036000295C28879C012F7033278F702A30310534
:1003700010F4805D01C0895C89878FE38A871B86C2
:100380006D2D8BE291E07DD3CFD062197309840982
:1003900095096C30710581059105B0F32D98A696ED
:1003A0000FB6F894DEBF0FBECDBFDF91CF911F9186
:1003B0000F91FF90EF90DF90CF90BF90AF909F9004
:1003C0008F907F906F905F904F903F902F90089507
:1003D00069E071E08AE191E012C48AE191E0A8C38A
:1003E000CF92DF92EF92FF92CF93DF9300D000D0B5
:1003F00000D0CDB7DEB78BE291E037D1892BE9F1A0
:100400008BE291E046D18F97C1F569E071E08AE116
:1004100091E049D444E650E060E070E08BE291E086
:100420005DD34CE56BE271E0CE0101965DD3BE0178
:100430006F5F7F4F8AE191E02BD4CE01019678D394
:1004400073D06B017C0170D06C197D098E099F09F6
:10045000623371058105910548F48BE291E005D185
:10046000892B89F38BE291E014D1EDCF66E071E046
:100470008AE191E06AD4811147DE26960FB6F8949E
:10048000DEBF0FBECDBFDF91CF91FF90EF90DF9029
:10049000CF9008951F920F920FB60F9211242F93B1
:1004A0003F938F939F93AF93BF938091230190913C
:1004B0002401A0912501B09126013091220126E06E
:1004C000230F2D3720F40296A11DB11D05C029E888
:1004D000230F0396A11DB11D2093220180932301B8
:1004E00090932401A0932501B093260180912701C8
:1004F00090912801A0912901B0912A010196A11D96
:10050000B11D8093270190932801A0932901B093F6
:100510002A01BF91AF919F918F913F912F910F90A1
:100520000FBE0F901F9018952FB7F894609123017C
:100530007091240180912501909126012FBF08958B
:100540003FB7F8948091270190912801A09129014B
:10055000B0912A0126B5A89B05C02F3F19F001963E
:10056000A11DB11D3FBF6627782F892F9A2F620FDB
:10057000711D811D911D43E0660F771F881F991F14
:100580004A95D1F708958F929F92AF92BF92CF92E2
:10059000DF92EF92FF926B017C01D2DF4B015C0195
:1005A000C114D104E104F104E1F0F8D3C9DF681902
:1005B00079098A099B09683E73408105910580F39A
:1005C00021E0C21AD108E108F10888EE880E83E024
:1005D000981EA11CB11CC114D104E104F10431F72F
:1005E000DFCFFF90EF90DF90CF90BF90AF909F90C4
:1005F0008F900895789484B5826084BD84B58160BD
:1006000084BD85B5826085BD85B5816085BDEEE61A
:10061000F0E0808181608083E1E8F0E010828081F9
:1006200082608083808181608083E0E8F0E0808167
:1006300081608083E1EBF0E0808184608083E0EB87
:10064000F0E0808181608083EAE7F0E0808184606F
:10065000808380818260808380818E7F808380819F
:10066000806880831092C1000895FC01818D928D75
:10067000891B90E00895FC01918D828D981731F0CF
:10068000828DE80FF11D858D90E008958FEF9FEF2B
:100690000895FC01918D828D981759F0828DDF01AC
:1006A000A80FB11D5D968C91928D9F5F928F90E007
:1006B00008958FEF9FEF089587EB94E0892B39F031
:1006C00080E090E0892B19F052D1811199CC0895E6
:1006D000FC01848DDF01A80FB11DA35EBE4F2C91DC
:1006E000848D8F5F848FA689B7892C93A089B18967
:1006F0008C9180648C93938D848D981306C00288AE
:10070000F389E02D80818F7D80830895CF93DF93DF
:10071000EC01888D8823C1F0EA89FB89808185FD01
:1007200005C0A889B9898C9186FD0EC00FB607FC5B
:10073000F5CF808185FFF2CFA889B9898C9185FF9B
:10074000EDCFCE01C5DFE8CFDF91CF910895CF92F5
:10075000DF92FF920F931F93CF93DF931F92CDB73A
:10076000DEB76C0181E0D60158968C9358975B9662
:100770009C915B975C968C915C97981307C0509600
:10078000ED91FC915197808185FD29C0F601038D83
:100790000F5FF02EF601848DF81210C00FB607FC23
:1007A000F9CFD6015096ED91FC915197808185FF4C
:1007B000F1CFC60169838CDF6981ECCF838DE80FAF
:1007C000F11DE35EFE4F6083D6015B960C935B9751
:1007D0005296ED91FC915397808180620CC0D601B6
:1007E0005696ED91FC91579760835096ED91FC9150
:1007F000519780818064808381E090E00F90DF9149
:10080000CF911F910F91FF90DF90CF900895BF92ED
:10081000CF92DF92EF92FF92CF93DF93EC016A01C8
:100820007B01B22E60E874E88EE190E0A7019601AA
:10083000B6D221503109410951095695479537954E
:100840002795E889F98982E08083211580E13807BE
:1008500090F0E889F989108260E472E48FE090E01A
:10086000A70196019CD221503109410951095695A1
:10087000479537952795EC85FD853083EE85FF8577
:100880002083188EEC89FD89B082EA89FB898081FA
:1008900080618083EA89FB89808188608083EA891E
:1008A000FB89808180688083EA89FB8980818F7DD4
:1008B0008083DF91CF91FF90EF90DF90CF90BF903A
:1008C00008951F920F920FB60F9211242F938F93BA
:1008D0009F93EF93FF93E0913B01F0913C01808166
:1008E000E0914101F091420182FD11C0908180911F
:1008F00044018F5F20914501821751F0E09144013E
:10090000F0E0E55DFE4F958F8093440101C080814A
:10091000FF91EF919F918F912F910F900FBE0F90AC
:100920001F9018951F920F920FB60F9211242F93BC
:100930003F934F935F936F937F938F939F93AF9367
:10094000BF93EF93FF938BE291E0C2DEFF91EF91B3
:10095000BF91AF919F918F917F916F915F914F91D7
:100960003F912F910F900FBE0F901F9018958BE223
:1009700091E07BDE21E0892B09F420E0822F0895AD
:1009800010922E0110922D0188EE93E0A0E0B0E0CD
:1009900080932F0190933001A0933101B0933201E5
:1009A0008EE091E090932C0180932B0185EC90E0F8
:1009B000909338018093370184EC90E090933A0152
:1009C0008093390180EC90E090933C0180933B014F
:1009D00081EC90E090933E0180933D0182EC90E0A9
:1009E0009093400180933F0186EC90E09093420108
:1009F00080934101109244011092450110924601EA
:100A0000109247010895CF92DF92EF92FF920F93D9
:100A10001F93CF93DF937C016A01EB0100E010E0AC
:100A20000C151D0571F06991D701ED91FC910190B4
:100A3000F081E02DC7010995892B19F00F5F1F4F39
:100A4000EFCFC801DF91CF911F910F91FF90EF90F1
:100A5000DF90CF9008956115710581F0DB010D9055
:100A60000020E9F7AD0141505109461B570BDC014D
:100A7000ED91FC910280F381E02D099480E090E0FB
:100A80000895E9CF0F931F93CF93DF93EC014CDDD3
:100A9000688779878A879B87E881F9810680F78153
:100AA000E02DCE01099597FF14C03EDD088519851C
:100AB0002A853B85601B710B820B930B0C811D817A
:100AC0002E813F81601771078207930728F38FEF0C
:100AD0009FEFDF91CF911F910F910895FC01448307
:100AE0005583668377830895EF92FF920F931F9348
:100AF000CF93DF93EC018B01E42E69E071E07FD0AE
:100B0000C801C0DFFF24E7FCF09497FD09C08E15F3
:100B10009F0531F0682FCE0106D1C801B3DFF5CFB4
:100B2000CE01DF91CF911F910F91FF90EF9008952B
:100B3000FC0180819181F3C1CF93DF93EC01888127
:100B40009981009709F0EBD1198218821D821C82CD
:100B50001B821A82DF91CF9108950F931F93CF9339
:100B6000DF93EC018B016F5F7F4F8881998166D2A3
:100B7000009731F0998388831B830A8381E001C049
:100B800080E0DF91CF911F910F910895CF93DF9374
:100B9000EC0188819981892B29F08A819B818617B4
:100BA000970758F4CE01D9DF882341F08C819D81CD
:100BB000892B19F4E881F981108281E0DF91CF91CE
:100BC0000895EF92FF920F931F93CF93DF93EC0161
:100BD0007B018A01BA01DADF811103C0CE01ACDFEB
:100BE00006C01D830C83B70188819981FCD2CE0198
:100BF000DF91CF911F910F91FF90EF900895FC012D
:100C0000118210821382128215821482611571057D
:100C100051F0FB0101900020E9F7AF01415051096B
:100C2000461B570BCECF08950F931F93CF93DF939F
:100C30008C01EB01FC0180819181009789F0428158
:100C400053812C813D814217530748F06881798197
:100C5000CAD28C819D81F8019583848312C05FD1B3
:100C600088819981F801918380838A819B81938314
:100C700082838C819D8195838483198218821B8253
:100C80001A821D821C82DF91CF911F910F910895CE
:100C9000CF93DF93EC018617970709F0C5DFCE01EC
:100CA000DF91CF910895CF93DF93EC01611571052A
:100CB00059F0FB0101900020E9F7AF0141505109C3
:100CC000461B570B7EDF01C037DFCE01DF91CF918E
:100CD0000895EF92FF920F931F93CF93DF93EC0150
:100CE0007B010C811D816115710511F480E014C038
:100CF0004115510581F0040F151FB80147DF882306
:100D0000A9F3288139818C819D81B701820F931FBE
:100D10006AD21D830C8381E0DF91CF911F910F91E7
:100D2000FF90EF900895CF93DF9300D0CDB7DEB75B
:100D300069831A8241E050E0BE016F5F7F4FC9DFD7
:100D40000F900F90DF91CF910895FC0124813581A0
:100D5000232B31F421E06115710599F0FB0108C0E6
:100D6000FC01808191816115710531F421E0FC0164
:100D70008081882331F004C02DD221E0892B09F035
:100D800020E0822F0895089535DCFDDF8FD9CCE572
:100D9000D3E026DB2097E9F38FDCFBCF0895A1E2B7
:100DA0001A2EAA1BBB1BFD010DC0AA1FBB1FEE1FE5
:100DB000FF1FA217B307E407F50720F0A21BB30B30
:100DC000E40BF50B661F771F881F991F1A9469F7AC
:100DD00060957095809590959B01AC01BD01CF0108
:100DE0000895EE0FFF1F0590F491E02D0994CF9325
:100DF000DF938230910510F482E090E0E0914A03A5
:100E0000F0914B0320E030E0A0E0B0E0309739F102
:100E10004081518148175907B8F04817590771F4B4
:100E200082819381109729F013969C938E93129749
:100E30002CC090934B0380934A0327C021153105A2
:100E400031F04217530718F0A901DB0101C0EF018F
:100E50009A01BD01DF010280F381E02DD7CF21157A
:100E60003105F9F0281B390B2430310580F48A81D3
:100E70009B816115710521F0FB019383828304C07E
:100E800090934B0380934A03FE01329644C0FE01C7
:100E9000E20FF31F81939193225031093983288304
:100EA0003AC02091480330914903232B41F420910B
:100EB00002013091030130934903209348032091AC
:100EC0000001309101012115310541F42DB73EB7E4
:100ED0004091040150910501241B350BE09148031A
:100EE000F0914903E217F307A0F42E1B3F0B2817DC
:100EF000390778F0AC014E5F5F4F2417350748F093
:100F00004E0F5F1F50934903409348038193919381
:100F100002C0E0E0F0E0CF01DF91CF910895CF93E0
:100F2000DF93009709F487C0FC0132971382128285
:100F3000C0914A03D0914B03209781F420813181E5
:100F4000280F391F80914803909149038217930716
:100F500079F5F0934903E09348036DC0DE0120E08A
:100F600030E0AE17BF0750F412964D915C91139785
:100F70009D014115510509F1DA01F3CFB383A28335
:100F800040815181840F951F8A179B0771F48D91C1
:100F90009C911197840F951F0296918380831296DE
:100FA0008D919C911397938382832115310529F4A8
:100FB000F0934B03E0934A033EC0D9011396FC9390
:100FC000EE9312974D915D91A40FB51FEA17FB07A1
:100FD00079F480819181840F951F0296D901119631
:100FE0009C938E938281938113969C938E931297F8
:100FF000E0E0F0E08A819B81009719F0FE01EC01AE
:10100000F9CFCE01029628813981820F931F20915A
:101010004803309149032817390769F4309729F4B8
:1010200010924B0310924A0302C013821282D09393
:101030004903C0934803DF91CF910895A0E0B0E049
:10104000E3E2F8E0DBC0EC01CB01209711F4CFDE46
:10105000B4C0FE01E60FF71F9E0122503109E217CE
:10106000F30708F4A8C0D9010D911C911197061738
:101070001707B0F00530110508F49BC0A8014450D3
:1010800051094617570708F494C002501109061B6E
:10109000170B019311936D937C93CF0140DF89C0AF
:1010A0005B01A01AB10A4E01800E911EA0914A0365
:1010B000B0914B03612C712C60E070E0109709F443
:1010C00049C0A815B905C9F5ED90FC9011976701C5
:1010D00042E0C40ED11CCA14DB0478F147018A181F
:1010E0009B08640142E0C40ED11C1296BC9012977A
:1010F0001396AC91B5E0CB16D10440F0B282A38335
:1011000091828082D9018D939C9309C00E5F1F4FFD
:101110000E0D1F1DF90111830083EB2DFA2F6115B0
:10112000710531F0DB011396FC93EE93129741C0E9
:10113000F0934B03E0934A033CC06D917C9111976F
:101140006616770608F43B01BD0112960D90BC911E
:10115000A02DB4CF609148037091490368157905BB
:10116000E9F468167906D0F440910001509101012C
:101170004115510541F44DB75EB76091040170917E
:101180000501461B570BE417F507A8F4F093490334
:10119000E0934803F901918380830BC028DE7C0132
:1011A000009749F0A801BE010CD0CE01B8DEC701FE
:1011B00004C0CE0102C080E090E0CDB7DEB7EEE023
:1011C00039C0FB01DC0102C001900D92415050403A
:1011D000D8F70895FB01DC018D9101908019011071
:1011E000D9F3990B0895FB01DC0101900D920020C9
:1011F000E1F708952F923F924F925F926F927F9204
:101200008F929F92AF92BF92CF92DF92EF92FF9216
:101210000F931F93CF93DF93CDB7DEB7CA1BDB0BC2
:101220000FB6F894DEBF0FBECDBF09942A88398867
:1012300048885F846E847D848C849B84AA84B9846E
:10124000C884DF80EE80FD800C811B81AA81B9817A
:10125000CE0FD11D0FB6F894DEBF0FBECDBFED018E
:10126000089510E0C8E3D0E003C0FE01BCDD229683
:0A127000CA33D107D1F7F894FFCF7D
:10127A0000004C0380004441310000000000A70335
:0A128A000305350349033B03860307
:00000001FF
